:020000040800F2
:10000000600C0020490100086D0B00086909000818
:10001000690B00080508000827110008000000000F
:100020000000000000000000000000000D0D0008AE
:100030000908000800000000F50B0008210E000868
:100040006301000863010008630100086301000800
:1000500063010008630100086301000863010008F0
:1000600063010008630100086301000863010008E0
:1000700063010008630100086301000863010008D0
:1000800063010008630100086301000863010008C0
:1000900063010008630100086301000863010008B0
:1000A00063010008630100086301000863010008A0
:1000B0006301000863010008630100086301000890
:1000C0006301000863010008630100086301000880
:1000D0006301000863010008630100086301000870
:1000E0006301000863010008630100086301000860
:1000F0006301000863010008630100086301000850
:10010000630100086301000863010008630100083F
:10011000850E000863010008630100086301000800
:10012000630100086301000863010008630100081F
:10013000DFF810D000F04CFA00480047E512000844
:10014000AFF30080600C0020064880470648004757
:10015000FEE7FEE7FEE7FEE7FEE7FEE7FEE7FEE777
:10016000FEE7FEE7250E000831010008F0B480EA42
:100170000102D40F4200B2EB410F02D20246084600
:1001800011464A0042D0C30DDDB2C1F3C752AD1AC9
:10019000202D35DAC1F3160141F4000204B15242B8
:1001A000C5F1200602FA06F12A411044B3EBD05FF4
:1001B00023D0C4B1012DA0EBC35009DCF0BC4FF03B
:1001C000004202EAC352DBB200F5000000F075B94C
:1001D000400000F1807000EBC350A0F1807040EA55
:1001E000D170490009E0490841EAC071A0EBC35051
:1001F00000F50000400800EBC350F0BC00F054B91B
:100200006142012202EB4101001BF6E7F0BC70479E
:1002100081F00041AAE780F00040A7E780EA0102F0
:1002200010B502F00043400022D04A001FD0010E5A
:1002300001EB1261C0F35600C2F3560240F4000015
:1002400042F40002A0FB022000047F39140400D015
:10025000401C50EA124001D44000491EC2B20C06B4
:1002600004EBD010401C4008802A02D003E000209C
:1002700010BD20F00100002900DA0020184310BD55
:1002800030B480EA010202F0004530F0004221F073
:10029000004013D090B1C30DD40DC2F31601C0F3CA
:1002A0001600E41A41F4000140F400027D3491424A
:1002B00001D3641C00E04900002C02DA30BC0020AD
:1002C00070474FF400000023914201D3891A034381
:1002D00040084FEA4101F7D151B1914202D14FF0AC
:1002E000004105E002D24FF0010101E06FF0010191
:1002F00003EBC450284430BC00F0D6B82DE9F04DD3
:1003000081EA030404F0004B21F0004514464FF04D
:10031000000A23F0004150EA050220D054EA01020D
:100320001DD0C5F30A570246C5F31303C1F31300EA
:10033000C1F30A5640F4801543F48013A7EB060876
:10034000101BD64608F2FD3873EB050002D308F106
:10035000010801E092185B41B8F1000F03DA0020B8
:100360000146BDE8F08D00204FF48011064684461A
:100370000EE0171B73EB050705D3121B63EB050398
:1003800006434CEA010C49084FEA300092185B41E1
:1003900050EA0107EDD152EA030012D082EA0400CC
:1003A00083EA0501084305D0101BAB4106D20122A8
:1003B000002306E000224FF0004302E06FF001024C
:1003C00053101AEB06004CEB085110EB0A0041EBFE
:1003D0000B01BDE8F04D00F09EB8962300221146B7
:1003E00000F06BB80EB5C10F80EAE0700844CA0790
:1003F000002140F233438DE80E000A460B4600F020
:1004000099F803B000BD20F00040C10DC0F3160004
:1004100040F400007F2901DA00207047962903DCB0
:10042000C1F19601C840704796398840704701F085
:10043000004330B421F0004150EA010206D00A0D19
:10044000A2F56072C1F31301002A02DC30BC002067
:100450007047440F44EAC104C100E01830BC00EB0F
:10046000C25000F021B80000002801DBC0F10040BC
:10047000002901DBC1F100418842704730B50B46CD
:10048000014600202022012409E021FA02F59D42C4
:1004900005D303FA02F5491B04FA02F52844151E98
:1004A000A2F10102F1DC30BD0029A8BF7047401C59
:1004B000490008BF20F00100704710B4B0FA80FC7A
:1004C00000FA0CF050EA010404BF10BC704749B1B7
:1004D000CCF1200421FA04F411FA0CF118BF012127
:1004E00021430843A3EB0C01CB1D4FEA00614FEA07
:1004F000102042BF002010BC704700EBC3501044D6
:100500000029A4BF10BC7047401C490008BF20F060
:10051000010010BC704710B5141E73F1000408DA16
:10052000401C41F1000192185B411A4301D120F0B7
:10053000010010BD2DE9F04D92469B4611B1B1FA74
:1005400081F202E0B0FA80F22032904600F052F8D8
:1005500004460F4640EA0A0041EA0B0153465A4658
:10056000084313D0114653EA010019D0C8F14002E4
:10057000504600F04EF805460E4650465946424653
:1005800000F038F8084305D0012004E02046394641
:10059000BDE8F08D0020054346EAE0762C43374362
:1005A0000A986305E40AA0EB08000022FD0A44EA69
:1005B00047540A3002D500200146E9E70105101929
:1005C0006941DDE9084500196941BDE8F04DA2E740
:1005D000064C074D06E0E06840F0010394E8070090
:1005E00098471034AC42F6D3FFF7A6FD4413000839
:1005F00064130008202A04DB203A00FA02F10020EC
:1006000070479140C2F1200320FA03F31943904050
:100610007047202A04DB203A21FA02F000217047BB
:1006200021FA02F3D040C2F120029140084319465A
:10063000704710B56FF0040000F0DEFB10BD70B520
:1006400004464FF4FA7094FBF0F0C6B24FF4FA701F
:1006500094FBF0F100FB114085B205E04FF4FA7015
:1006600000F0D3F8701EC6B2002EF7D115B128469F
:1006700000F0CBF870BD000000B587B0012110205C
:1006800000F0CAFA4FF48060ADF8180018208DF819
:100690001B0003208DF81A0006A9244800F0D9F8A1
:1006A0004FF40060ADF8180004208DF81B0006A977
:1006B0001E4800F0CEF80121C80400F09DFA4FF466
:1006C000E12002900020ADF80C00ADF80E00ADF86E
:1006D0001000ADF814000C20ADF8120002A9144867
:1006E00000F0ACFC34208DF8040001208DF80500EA
:1006F0008DF806008DF8070001A800F039FA0121F5
:100700000B4800F033FC012240F22551084800F06C
:1007100070FC0021064800F002FD00BF40210448A3
:1007200000F030FC0128F9D107B000BD00100140F5
:10073000004C004010B5A520104908708220487078
:10074000052088700020C870087148718871C871D0
:100750002220087200240DE00848015D084800F0DE
:10076000DEFC00BF4021064800F00CFC0128F9D156
:10077000601CC4B2092CEFDB10BD00008400002017
:10078000004C004010B586B004460121042000F062
:1007900043FA0121880300F03FFA4FF40070ADF8EE
:1007A000140018208DF8170003208DF8160005A9F5
:1007B000124800F04EF84FF48060ADF814000420A9
:1007C0008DF8170005A90D4800F043F801940020AA
:1007D000ADF80800ADF80A00ADF80C00ADF8100057
:1007E0000C20ADF80E0001A9054800F027FC0121FE
:1007F000034800F0BBFB06B010BD0000000801403C
:100800000038014000BFFEE77047014642F228323F
:100810004A434FF0E0235A6100229A611A46126956
:1008200042F001021A6100BF4FF0E022106900F0AF
:1008300001021AB100F48032002AF5D04FF0E02214
:10084000126922F001024FF0E0231A6100229A613E
:1008500070472DE9F04102460025002600200023C4
:100860000024002791F803C00CF00F0591F803C095
:100870000CF0100CBCF1000F03D091F802C04CEA50
:10088000050591F800C0BCF1000F31D014680020BC
:100890002BE04FF0010C0CFA00F3B1F800C00CEAA9
:1008A00003069E4220D183004FF00F0C0CFA03F791
:1008B000BC4305FA03FC4CEA040491F803C0BCF104
:1008C000280F06D14FF0010C0CFA00FCC2F814C03E
:1008D0000AE091F803C0BCF1480F05D14FF0010CBC
:1008E0000CFA00FCC2F810C0401C0828D1D31460D8
:1008F000B1F800C0BCF1FF0F34DD546800202EE0D9
:1009000000F1080C4FF0010808FA0CF3B1F800C030
:100910000CEA03069E4221D183004FF00F0C0CFA23
:1009200003F7BC4305FA03FC4CEA040491F803C046
:10093000BCF1280F05D100F1080C08FA0CF8C2F838
:10094000148091F803C0BCF1480F07D100F1080CE6
:100950004FF0010808FA0CF8C2F81080401C082873
:10096000CED35460BDE8F08100BFFEE72DE9F05F13
:1009700074498978734AD27802F07F0201EB022031
:10098000FFF730FD074600226F4BFFF7B7FC054627
:10099000FFF74DFD83466D4801685846FFF764FD3B
:1009A00053D26A4801685846FFF732FC0546684949
:1009B000FFF766FC8146002444E02046FFF70DFD6A
:1009C00006464946FFF72AFC05465946FFF7CEFB87
:1009D000824660495046FFF747FD11D25D495046B7
:1009E000FFF716FC06465C49FFF718FC0546FFF7C3
:1009F0000AFD5A4909882144594A22F821000CE08D
:100A000055495046FFF70AFC0546FFF7FCFC5349E1
:100A100009882144524A22F82100042000EB840076
:100A20004849085C052101EB8401464A515C00EB12
:100A300001204A4909882144494A02EB8101488042
:100A4000601CC4B2142CB8DB57E042495846FFF78B
:100A50008DFB06463D4801683046FFF7D9FB054649
:100A60003B49FFF70DFC8146002444E02046FFF798
:100A7000B4FC06464946FFF7D1FB05465946FFF749
:100A800075FB824633495046FFF7EEFC11D23149DF
:100A90005046FFF7BDFB06462F49FFF7BFFB054653
:100AA000FFF7B1FC2D49098821442D4A22F8210085
:100AB0000CE029495046FFF7B1FB0546FFF7A3FCC0
:100AC000264909882144264A22F82100042000EB07
:100AD00084001C49085C052101EB8401194A515C22
:100AE00000EB01201D49098821441D4A02EB8101C8
:100AF0004880601CC4B2142CB8DB1448C0F800B0A5
:100B00001648008814301549088008460088B0F55A
:100B1000827F15DD00240EE0114830F824001149D1
:100B200021F824000E4800EB8400408801EB84018A
:100B30004880601CC4B2FA2CEEDB00200749088014
:100B4000BDE8F09F2000002000005040040000207D
:100B50000000A0410000B4430000C8420200002091
:100B6000760400208E00002000BFFEE770470000E2
:100B700070B5002100230F22C47804B3154C2468FB
:100B800004F4E064C4F5E064210AC1F10403CA403E
:100B9000447804FA03F184781440214309010E4C8F
:100BA0000678A155047804F01F050124AC400578AF
:100BB0006D11AD0005F1E025C5F8004109E00478AC
:100BC00004F01F050124AC40044D0678761145F869
:100BD000264070BD0CED00E000E400E080E100E0A4
:100BE00002490143024A1160704700000000FA0503
:100BF0000CED00E07047000029B1064AD2690243BB
:100C0000044BDA6104E0034AD2698243014BDA61A2
:100C1000704700000010024029B1064A9269024361
:100C2000044B9A6104E0034A92698243014B9A6142
:100C3000704700000010024030B50021002200245F
:100C400000232D4D6D6805F00C0121B1042905D05C
:100C5000082923D105E0294D056022E0274D0560D4
:100C60001FE0254D6D6805F47012234D6D6805F485
:100C70008034022505EB92421CB9214D5543056095
:100C80000BE01D4D6D6805F400351DB11C4D55433D
:100C9000056002E0194D5543056002E0174D0560FF
:100CA00000BF00BF144D6D6805F0F0010909154D36
:100CB0006B5C0568DD4045600F4D6D6805F4E061D3
:100CC000090A104D6B5C4568DD4085600A4D6D6812
:100CD00005F46051C90A0B4D6B5C4568DD40C56089
:100CE000054D6D6805F44041890B074D6B5CC56887
:100CF000B5FBF3F5056130BD0010024000127A002B
:100D000000093D000800002018000020704710B5C1
:100D100000F002F810BD00000CB50020019000901A
:100D20003348006840F480303149086000BF3048E3
:100D3000006800F4003000900198401C0190009879
:100D400018B90198B0F5A06FF1D12948006800F4F6
:100D5000003010B10120009001E0002000900098C8
:100D6000012843D12348006840F010002149086061
:100D70000846006820F0030008600846006840F05C
:100D8000020008601A4840681949486008464068EF
:100D900048600846406840F4806048600846406803
:100DA00020F47C1048600846406840F4E810486031
:100DB0000846006840F08070086000BF0C4800687A
:100DC00000F000700028F9D00948406820F00300C6
:100DD000074948600846406840F00200486000BF8C
:100DE0000348406800F00C000828F9D10CBD000051
:100DF0000010024000200240042808D14FF0E021FA
:100E0000096941F004014FF0E022116107E04FF061
:100E1000E021096921F004014FF0E02211617047DF
:100E20007047000010B51348006840F001001149F8
:100E3000086008464068104908400E494860084666
:100E400000680E4908400B4908600846006820F415
:100E5000802008600846406820F4FE0048604FF497
:100E60001F008860FFF753FF4FF0006004490860DF
:100E700010BD0000001002400000FFF8FFFFF6FE6A
:100E800008ED00E070B540F22551344800F087F8D5
:100E9000002862D0314800F03DF9C4B230480078F3
:100EA00003282CDA2E48007858B90A20B0EB241F0A
:100EB00053D12C482A490978445401202849087004
:100EC0004BE02748007801280FD10520B0EB241F04
:100ED00007D1244822490978445402202049087047
:100EE0003BE000201E49087037E01E481C49097885
:100EF000445403201A4908701B4804702DE0184818
:100F0000007853280EDA17481549097844541448D4
:100F10000078401C1249087013480078604012495C
:100F200008701AE00F480E49097844540E480078BA
:100F300060400D4908700020094908700948007890
:100F400000F00F000749497800EB0110C5B20648D0
:100F50000078A84201D1FFF709FD70BD004C0040A8
:100F600000000020200000200100002021B1828923
:100F700042F40052828104E082894DF6FF731A40E8
:100F80008281704702460020B1F5007F00D100BF8A
:100F900013880B400BB1012000E00020704770B5B2
:100FA0000246002400230025002040F66A16B142C4
:100FB00000D100BFC1F3421501F01F03012606FA5C
:100FC00003F3012D02D19689334006E0022D02D1B0
:100FD000168A334001E0968A33400C12012606FA45
:100FE00004F41688344013B10CB1012000E0002055
:100FF00070BDF0B50346002400260025002040F611
:101000006A17B94200D100BF1846C1F3421401F07B
:101010001F06012707FA06F5012C01D10C3004E068
:10102000022C01D1103000E014301AB107682F43B0
:10103000076002E00768AF430760F0BD2DE9F047A5
:1010400086B005460E460024A24600BFA1460027F2
:10105000B08900B100BF2F462C8A4CF6FF700440C7
:10106000F08804432C82AC894EF6F3100440B0881B
:1010700031890843718908430443AC81AC8A4FF637
:10108000FF400440B0890443AC8201A8FFF7D4FDBF
:101090001F48874202D1DDF810A001E0DDF80CA066
:1010A000A88900F4004040B10AEBCA0000EB0A1026
:1010B00031684900B0FBF1F807E00AEBCA0000EB29
:1010C0000A1031688900B0FBF1F86420B8FBF0F039
:1010D00004012009642101FB1089A88900F4004063
:1010E00040B1322000EBC900B0FBF1F000F0070086
:1010F000044308E0322000EB09106421B0FBF1F05A
:1011000000F00F0004432C8106B0BDE8F08700001A
:101110000038014001468888C0F308007047C1F3D9
:1011200008028280704700BFFEE700000FB4054B45
:1011300010B503A9044A029800F018F810BC5DF835
:1011400014FB0000C11200081C00002002E008C8C7
:10115000121F08C1002AFAD170477047002001E031
:1011600001C1121F002AFBD1704700002DE9FF4F7B
:1011700089B09B460446002506E025280BD05A4638
:101180000B999047641C6D1C20780028F5D10DB098
:101190002846BDE8F08F0027B8460122474900E005
:1011A000074314F8013F203B02FA03F00842F7D14D
:1011B00020782E2819D114F8010F47F004072A28A7
:1011C0000ED06FF02F022078A0F1300109290CD841
:1011D00008EB880102EB410100EB0108641CF2E717
:1011E0000A98641C50F8048B0A9020780028CED00E
:1011F000642808D0692806D075281ED05A460B9955
:1012000090476D1C58E00A994FF00A0901C90A91EC
:10121000002802DA40422D2102E0390504D52B21B5
:101220008DF82010012103E0F90704D02021F7E711
:101230008A4608AE0DE00021FAE70A994FF00A0944
:1012400001C90A91F7E74946FFF718F9303106F866
:10125000011D0028F7D1ADEB060000F12009780749
:1012600001D44FF00108C84502DDA8EB090000E0F9
:1012700000208046002706E008A85A46C05D0B996A
:1012800090476D1C7F1C5745F6DB04E030205A4622
:101290000B9990476D1CB8F10001A8F10108F5DC2D
:1012A00005E016F8010B5A460B9990476D1CB9F1F1
:1012B0000001A9F10109F4DC641C65E709280100BB
:1012C00070B504460D46E1B20548FFF728FF00BFA0
:1012D00040210348FFF756FE0028F9D0204670BD94
:1012E000003801404FF4A060FFF77AFCFFF7A1F946
:1012F0004FF4E120FFF746FAFFF7BEF94FF4FA602A
:10130000FFF79DF9FFF716FA12E000240BE00948F9
:1013100000EB84004288074830F8241006A0FFF74D
:1013200005FF601CC4B2FA2CF1DB3220FFF787F90D
:10133000EBE700008E0000202564202564200D0AC4
:1013400000000000641300080000002020000000DE
:101350004C1100088413000820000020400C0000FD
:101360005C11000800000000000000000000000008
:101370000102030401020304060708090204060827
:041380000000000069
:0400000508000131BD
:00000001FF
